:020000040800F2
:10000000E80400209D0100082F1D0008F31B0008D4
:100010002D1D0008D5030008D525000800000000AC
:100020000000000000000000000000007520000833
:10003000E104000800000000511D000877200008BE
:10004000B7010008B7010008B7010008B7010008B0
:10005000B7010008B7010008E3040008F104000834
:10006000F7040008FD040008B7010008B701000804
:10007000B7010008B7010008B7010008B701000880
:10008000B7010008B7010008B7010008B701000870
:10009000B7010008B7010008B70100080305000810
:1000A000B7010008B7010008B7010008B701000850
:1000B000B701000885210008B7010008B701000852
:1000C000B7010008B7010008B7010008B701000830
:1000D000B7010008B7010008B7010008B701000820
:1000E000E9040008B7010008B7010008B7010008DB
:1000F000B7010008B7010008B7010008B701000800
:10010000B7010008B7010008B7010008B7010008EF
:10011000B7010008B7010008B7010008B7010008DF
:10012000B7010008B7010008B7010008B7010008CF
:10013000B7010008B7010008B7010008B7010008BF
:10014000B7010008B7010008B7010008B7010008AF
:10015000B7010008B7010008B7010008B70100089F
:10016000B7010008B7010008B7010008B70100088F
:10017000B7010008B7010008B7010008000000003F
:10018000B7010008B7010008DFF80CD000F02AF82A
:1001900000480047592A0008E80400200648804724
:1001A00006480047FEE7FEE7FEE7FEE7FEE7FEE75C
:1001B000FEE7FEE7FEE7FEE70921000889010008E7
:1001C000D2B201E000F8012B491EFBD27047002299
:1001D000F6E710B513460A4604461946FFF7F0FF46
:1001E000204610BD064C074D06E0E06840F00103D4
:1001F00094E8070098471034AC42F6D3FFF7C8FFE5
:10020000302B0008502B00082DE9F04F002487B058
:100210000646254DDFF894A003274FF00209DFF8CA
:10022000908012E08CB1032C0FD0012C0DD0022C49
:100230000BD0042C09D000BF38F81400CDE9029788
:1002400000905EB1012E11D025E0E86C40F0010075
:10025000E864E86C00F001000590EDE700200190F3
:100260005AF82400694600F009FA14E01148019098
:100270005AF82400694600F001FADFF834B0002291
:10028000ABF1060B0F211BF9040000F049FC1BF930
:10029000040000F03AFC641CE4B2052CC2D307B0A1
:1002A000002000F009B800000010024010000020FB
:1002B000E62A00080000211030BCBDE8C08F000015
:1002C000014800F0F3BA00009800002070B5054620
:1002D000002408E0002223461146284602F07CF95B
:1002E000641CE4B26D1C287808B1052CF2D9BDE875
:1002F0007040014800F099BB98000020114810B5EB
:100300000F49016000214FF47012C0E901120C2264
:10031000C2604FF4A05340228361C0E90421C0E9C8
:10032000071212024162C0E90A12016301F062FC85
:10033000044800F0FBFABDE81040024800F0B6BAED
:10034000002400409800002030B50400174887B012
:1003500002D0012C08D00FE0C16C41F00201C16451
:10036000C06C00F0020006E0C16C41F01001C164F5
:10037000C06C00F0100005900D480E4D694630F835
:1003800014000090012001900020029003200390AF
:1003900055F8240000F072F90098002281B255F857
:1003A000240000F050FA07B030BD000000100240F9
:1003B000DC2A0008080000200449054A31F8101022
:1003C00052F82000002200F03EBA0000DC2A0008AB
:1003D00008000020FEE7000070B5002300781C46EE
:1003E000342817D00FDCA0F12005142D24D2DFE82B
:1003F00005F035232323235623233B3D384E234B3F
:10040000235111111111642832D009DCA0F13505F6
:10041000042D11D8304B03EB400030F8603C1DE058
:10042000B02839D004DC6D2825D06E2804D125E011
:10043000B52826D0FF2835D0274DA0F14106343D00
:100440001A2E03D205EB400333F8823CA0F161067B
:100450001A2E03D205EB400030F8C23C012924D00B
:1004600025E04AF2DD03F9E72823F7E71123F5E752
:100470004FF47343F2E74BF21023EFE742F21023FD
:10048000ECE746F28403E9E74FF42043E6E74AF25B
:100490001403E3E7C023E1E74FF46C43DEE74FF4D6
:1004A0003343DBE74FF6DD73D8E743F00203012A5D
:1004B00001D143F0200309490C2000BF23FA00F2C8
:1004C00002F00F0241F82420001F641CE4B2C0B205
:1004D000042CF3D370BD0000C82A0008D40000200B
:1004E0007047012000F0BEB84FF4804000F0BAB869
:1004F000022000F0B7B8042000F0B4B8082000F0E3
:10050000B1B8202000F0AEB838B51748C16C41F042
:100510001001C164C06C154C00F010000090012067
:100520006060A0600320E0604FF48060104D2060A8
:100530002146284600F0A2F84FF4006020602146D2
:10054000284600F09BF84FF4805020602146284652
:1005500000F094F84FF40040206021462846BDE8A2
:10056000384000F08BB800000010024084000020EA
:100570000010004810B5104C00224FF48061204656
:1005800000F061F900224FF40061204600F05BF9B1
:1005900000224FF48051204600F055F900224FF41C
:1005A0000041204600F04FF90020FFF705FFBDE8AD
:1005B00010400120FFF700BF0010004870B504464E
:1005C00000F046F90546601C00D0641C00F040F9BC
:1005D000401BA042FAD370BD10B51F4C042829D08F
:1005E00010DC4FF00101012821D0022822D16088BF
:1005F000012820D06180FFF763FE18A0BDE81040FD
:10060000FFF764BE08281CD0202813D1FFF758FE3E
:10061000A08844F6206188420CD8A08800F57A7042
:10062000A08001F0B5FDBDE8104001F08FBD20783D
:100630008143217010BD00206080FFF741FE08A0BB
:10064000DCE7FFF73DFEA088B0F57A6FF2D3A08813
:10065000A0F57A70E4E70000000000204357000096
:1006600043435700044910B50A68024202D00860AB
:10067000FFF7B2FF10BD0000140401402DE9F84F50
:10068000DFF898B100234FF0010C4FF0030A4FF050
:100690000F090BF1040EB9E00CFA03F4224070D0FC
:1006A0004D68022D01D0122D0ED1DD0800EB85081A
:1006B000D8F820505E07F70E09FA07F6B5430E6921
:1006C000BE402E43C8F8206007685E0091F80480A1
:1006D0000AFA06F508F00308AF4308FA06F848EAF4
:1006E0000708C0F800804F68012F05D0022F03D003
:1006F000112F01D0122F13D1D0F80880CF6828EA2B
:100700000508B74047EA08078760D0F804800F79EA
:1007100028EA0408C7F300179F4047EA0807476024
:10072000D1F804806FEA0807BF0706D1C76AA7435C
:10073000C8F3C0049C403C43C462C468AC438D68A9
:10074000B5402543C5604C68E4005ED5344C256E49
:1007500045F001052566246E23F0030504F001042D
:100760000094304C2E19B4689D072F0F09FA07F535
:10077000AC43B0F1904F05D02B4DA84204D10125D8
:100780001CE042E0002519E0284DA84201D10225D5
:1007900014E0274DA84201D103250FE0254DA842C2
:1007A00001D104250AE0244DA84201D1052505E028
:1007B000224DA84201D1062500E00725BD40254372
:1007C000B560DBF800405D464E689443F60300D503
:1007D00014432C60DEF8004075464E689443B6031F
:1007E00000D514432C600D4D08352C684E68944399
:1007F000F60200D514432C60084D0C352C684E6869
:100800009443B60200D514432C605B1C0A6832FA8C
:1008100003F57FF441AF00F013B80000000401407D
:100820000010024000000140000400480008004899
:10083000000C004800100048001400480018004850
:1008400018BCBDE8E08F0AB18161704781627047D2
:100850000148006870470000240000200248016839
:10086000491C0160704700002400002010B50320DF
:1008700000F076F90F2000F005F800F045F90020AF
:1008800010BD000010B5044607484FF47A710068A7
:10089000B0FBF1F000F006FF00222146501E00F0F0
:1008A0003FF9002010BD0000280000202DE9F04194
:1008B000044690F83500012806D094F83500022847
:1008C00002D00120BDE8F08194F8340001280CD05A
:1008D000012084F83400022784F83570FFF7B8FF50
:1008E00006464FF47A7800250CE00220EAE700BFC4
:1008F000FFF7AEFF801B404504D9A76384F834504E
:100900000320DFE720688068C0434007F0D500205F
:100910005FF01401226801EB8003D550401C0F28C2
:10092000F8D9204600F081F80020CBE72DE9F0410E
:1009300004004FF0000504D094F83500002618B1EB
:1009400007E00120BDE8F08184F83460204600F023
:100950006BF8022084F835002068016821F001015D
:1009600001601420216800EB85028E506D1C0F2D54
:10097000F8D92068816841F004018160D4E901015F
:100980000843D4E90A1211430843E1690843216A84
:100990000843A1690843616A084321684A68214BFA
:1009A0001A4010434860204601F0A8F9D4E903102A
:1009B0000143226B6069104301432068026822F002
:1009C000FE02114301602068016841F001010160ED
:1009D000FFF73EFF05464FF47A7706E0FFF738FF52
:1009E000401BB84201D908200EE020688068C0434F
:1009F000C007F3D1FFF72CFF054608E0FFF728FFFB
:100A0000401BB84203D91020A06303209AE7206856
:100A10008068C043C006F1D4A663012084F8350085
:100A200000208FE70E0000FC70472DE9F0410446DE
:100A300008202168C8602068816841F00401816055
:100A4000FFF706FF054600264FF47A770BE0FFF725
:100A5000FFFE401BB84206D90420A06384F834602E
:100A60000320BDE8F08120688068C0430007EED411
:100A7000012084F8350084F834600020F1E700009C
:100A80002DE9F047044690F835009A46904689468D
:100A9000012806D094F83500022802D00120BDE8D4
:100AA000F08794F83500012822D194F83400012809
:100AB0000BD0012084F83400022684F83560FFF75B
:100AC000C7FE05464FF47A770DE00220E7E700BF46
:100AD000FFF7BEFE401BB84205D9A663002084F88C
:100AE00034000320DBE720688068C0434007EFD56F
:100AF0001422216802EB89000A5802EA080242EA3D
:100B00000A020A500020CAE7704700F01F020121C4
:100B100091404009800000F1E020C0F800117047CA
:100B2000F0B40E4B1B680C46C3F30223C3F1070558
:100B3000042D00D90425191D072901D2002300E046
:100B4000DB1E012606FA05F1491E214099409E4010
:100B5000761E16403143F0BC01F0EAB80CED00E01F
:100B6000064900F0070208684FF6FF03184040EA04
:100B70000220034A10430860704700000CED00E0BB
:100B80000000FA051549B0F5007F0868C0F3412060
:100B900009D0022805D0086820F4C06040F48060C5
:100BA0000860002070470128FBD0086820F4C0606E
:100BB00040F4007008600A480A4A0068B0FBF2F08E
:100BC0003222504300E0401E10B14A695205FAD467
:100BD00048694005E5D503207047000000700040DB
:100BE0002800002040420F000248006800F4C06066
:100BF00070470000007000402DE9F84F04460027C0
:100C00000088E54D3E46010504F1200B1DD5606EC0
:100C100078B1B0F5800F11D0B0F5000F04D0B0F569
:100C2000400F22D001270FE0E86840F48030E860F0
:100C30001BE00021201D01F08DF803E00021584643
:100C400001F03CF9070010D03E462088C00426D5AC
:100C5000A06EC0B1B0F1807F1AD0B0F1007F0DD08E
:100C6000B0F1407F19D0012718E0D5F88800616EF7
:100C700020F440000843C5F88800E6E7E86840F43F
:100C80008030E86009E00021201D01F063F803E0F6
:100C90000021584601F012F90746F7B13E46206898
:100CA00080033AD5A86D4FF00008C00009D4A86DA4
:100CB00040F08050A865A86D4FF0010800F080500A
:100CC0000090DFF8D8A2DAF8001041F48071CAF879
:100CD0000010FFF7BDFD814610E0D5F88800A16E39
:100CE00020F040700843C5F88800D8E7FFF7B0FD52
:100CF000A0EB0900022801D9032705E0DAF800007B
:100D0000C005F3D5002F7CD04FEA0706B8F1000FDD
:100D100003D0A86D20F08050A8652078C00707D0C8
:100D2000D5F88800A16B20F003000843C5F88800BF
:100D30002078800707D5D5F88800E16B20F00C00FB
:100D40000843C5F888002078400707D5D5F8880003
:100D5000216C20F030000843C5F888002078000797
:100D600007D5D5F88800616C20F0C0000843C5F8AD
:100D700088002078C00607D5D5F88800A16C20F43B
:100D800040700843C5F888002078800607D5D5F85C
:100D90008800E16C20F440600843C5F88800208892
:100DA000800507D5D5F88800E16D20F44020084380
:100DB000C5F888002088400507D5D5F88800216E41
:100DC00020F440100843C5F888002078400607D575
:100DD000D5F88800216D20F440500843C5F88800FC
:100DE0002078000607D5D5F88800616D20F44040D2
:100DF0000843C5F888002088C00509D5D5F88800C3
:100E000000E01CE0A16D20F440300843C5F88800E4
:100E100020884FF0006780044FF080684FD5D5F8E8
:100E20008800E16E20F040600843C5F88800E06E5D
:100E3000B8423CD1E86840F48010E8603FE0D5F863
:100E4000900010F4407015D0D4F88410814211D075
:100E5000D5F89000D5F8901020F4407041F480311E
:100E6000C5F89010D5F8901021F48031C5F8901095
:100E7000C5F89000C00710D0FFF7EAFC074641F222
:100E8000883906E0FFF7E4FCC11B494501D9032678
:100E90003CE7D5F890008007F4D5D5F89000D4F859
:100EA000841020F440700843C5F890002EE74045B8
:100EB00005D10121201D00F04DFF00B1064620683C
:100EC000000317D5D5F88800216F20F04060084353
:100ED000C5F88800206FB84204D1E86840F480105B
:100EE000E86007E0404505D10121201D00F032FFF8
:100EF00000B106462068400317D5D5F88800616F19
:100F000020F040600843C5F88800606FB84204D103
:100F1000E86840F48010E86007E0404505D1012111
:100F2000201D00F017FF00B10646208840041AD5A6
:100F3000D5F88800A16F20F040500843C5F888001C
:100F4000A06FB0F1805F03D0B0F1005F05D00AE080
:100F50000221201D00F0FEFE03E00221584600F0B1
:100F6000ADFF00B106462088000407D5D5F88800FB
:100F7000E16F20F080400843C5F888002068C00376
:100F800007D555F8880FD4F8801020F000400843AA
:100F90002860304600F004B80010024000700040A5
:100FA00018BCBDE8E08F00002DE9F047DFF868814C
:100FB00005460E46D8F8000000F00700B0420CD2FB
:100FC000D8F8001021F007013143C8F80010D8F814
:100FD000000000F00700B04274D128784F4C800721
:100FE00005D5A068A96820F0F0000843A060287823
:100FF000C00756D06868022818D0032819D0216885
:10100000D0B1490500295DDAA16821F0030101434F
:10101000A160FFF71DFC6968074641F2883002298C
:1010200012D003291ED0814649B335E021688903D7
:10103000E8E721688901E5E78907E3E7FFF708FCAE
:10104000C11B494501D924E08146A068C0F3810055
:101050000228F3D125E000BFFFF7FAFBC11B494589
:1010600001D916E08146A068C0F381000328F3D1BE
:1010700017E000BFFFF7ECFBC11B494509D8A0688A
:1010800010F00C0FF6D10CE0FFF7E2FBC11B494555
:1010900002D90320BDE8F087A068C0F381000128D1
:1010A000F2D1D8F80010404601F00701B1420BD947
:1010B000016821F0070131430160006800F007007A
:1010C000B04201D00120E5E72878400705D5A068A7
:1010D000E96820F4E0600843A0602878000706D59E
:1010E000A068296920F4605040EAC100A06000F0C7
:1010F0001BF8A168F02292FAA2F201F0F001B2FA14
:1011000082F2D140064A515CC840064908600F206F
:10111000FFF7B8FB0020BDE70020024000100240AE
:10112000F02A00082800002070B53B49002318462B
:101130008A683A4C12F00C0F4FEA640514D08A68A2
:10114000C2F38102032A04D1CA6802F00302012A11
:101150000AD08A68C2F38102012A21D08A68C2F3C8
:101160008102022A1ED01EE00A68120706D4D1F8B6
:1011700094204FF4706302F4706203E00A68F02375
:1011800002F0F00293FAA3F3B3FA83F3DA40244BAC
:1011900053F822308A6812F00C0F04D1184602E08E
:1011A000204600E028468A68C2F38102032A31D132
:1011B000C868CA6800F00300702696FAA6F602F026
:1011C0007002B6FA86F6F240521C4FF4FE46022830
:1011D00004D0032805D0B3FBF2F004E0B4FBF2F036
:1011E00001E0B5FBF2F0CA6896FAA6F302F4FE42FB
:1011F000B3FA83F3DA40C96850434FF0C06292FA01
:10120000A2F201F0C061B2FA82F2D140491C490059
:10121000B0FBF1F070BD0000001002400024F400AB
:10122000002B00082DE9F84304460078FE4DC00667
:1012300063D5A86810F00C0F0AD0A06900282868B0
:1012400078D040F001002860FFF702FB06465AE024
:101250002868800702D5A06900286AD0216A28681A
:101260004FF0F006000703D5286800F0F00003E017
:10127000D5F8940006EA1010814216D9084600F00D
:10128000BBFE002855D1286840F008002860286877
:10129000216A20F0F000084328606868E16920F4C2
:1012A0007F4040EA0120686015E0286840F00800AF
:1012B00028602868216A20F0F000084328606868E8
:1012C000E16920F47F4040EA01206860206A00F074
:1012D00093FE0028D6D1FFF727FFA96896FAA6F259
:1012E00001F0F001B2FA82F2D140D04A515CC8401C
:1012F000CF4908600F20FFF7C5FA2BE0FFF7A8FAE7
:10130000801B02287ED828688007F7D5286840F01F
:10131000080028602868216A20F0F000084328604F
:101320006868E16920F47F4040EA0120686011E0CC
:1013300000E0B7E020F001002860FFF789FA0646D8
:1013400005E000BFFFF784FA801B0228DAD828687E
:101350008007F7D42078C00748D0A868C0F3810080
:1013600002281DD0A868C0F38100032803D1E868D3
:10137000C043800714D06068B0F5803F17D0B0F547
:10138000A02F286817D020F480302860286820F427
:10139000802028606068E0B1FFF75AFA064614E042
:1013A0002868800322D5606800287BD01EE028686A
:1013B00040F48030EDE740F480202860F7E700BF7C
:1013C000FFF746FA801B64289CD828688003F7D56D
:1013D0000CE0FFF73DFA064605E000BFFFF738FADC
:1013E000801B64288ED828688003F7D42078800773
:1013F00048D5A8684FF0F857C0F38100012816D0EF
:10140000A86800E0AFE0C0F38100032804D1E868D9
:1014100000F0030002280AD0E0680028286821D0E4
:1014200040F480702860FFF713FA06460BE0286846
:1014300040050BD5E0680028B7D007E0FFF708FAB1
:10144000801B0228C0D828684005F7D5686897FA3D
:10145000A7F22169B2FA82F220F0F85091400843D5
:1014600068600FE020F480702860FFF7F1F906460D
:1014700005E000BFFFF7ECF9801B022873D828684D
:101480004005F7D42078000729D560690028D5F8F1
:10149000940013D040F00100C5F89400FFF7D8F98C
:1014A000064606E0FBE000BFFFF7D2F9801B0228EA
:1014B00059D8D5F894008007F6D510E020F0010047
:1014C000C5F89400FFF7C4F9064604E0FFF7C0F939
:1014D000801B022847D8D5F894008007F6D42078DE
:1014E000400763D5A86D0026C00008D4A86D40F061
:1014F0008050A865A86D012600F0805000904D48EE
:101500000168C90511D40168804641F48071016009
:10151000FFF79EF9074604E0FFF79AF9C01B02287F
:1015200021D8D8F80000C005F6D5A068012815D04C
:101530000528D5F8900017D020F00100C5F89000DC
:10154000D5F8900020F00400C5F89000A06841F2A2
:101550008838C8B1FFF77CF9074610E0D5F890004D
:1015600040F00100F0E75EE040F00400C5F89000B4
:10157000F4E700BFFFF76CF9C11B414553D8D5F81C
:1015800090008007F6D50CE0FFF762F9074604E00B
:10159000FFF75EF9C11B414579D8D5F89000800767
:1015A000F6D41EB1A86D20F08050A865A06AC8B31B
:1015B000A968C1F38101032972D00228286820F0AC
:1015C0008070286011D02868000106D42868800047
:1015D00003D4E86820F00300E860E8681649084092
:1015E000E860FFF735F9044654E0FFF731F90646A5
:1015F00005E000BFFFF72CF9801B022847D82868B8
:101600008001F7D4206BE16A000110380843616B58
:10161000A26B0902120941EA42410843A18F074A1D
:1016200049080DE039E032E000100240F02A0008DD
:101630002800002000700040FFFFEEFE0000E0FFE9
:1016400002EB4151084394F840104908120102EBA3
:1016500041610843E860286840F080702860E868CD
:1016600040F08070E860FFF7F3F8044605E000BF43
:10167000FFF7EEF8001B022809D828688001F7D58B
:101680000BE000BFFFF7E4F8001B022802D903209B
:10169000BDE8F88328688001F4D40020F8E7FFE76C
:1016A0000120F5E710B5401EB0F1807F01D3012085
:1016B00010BD4FF0E02460610F21601700F038FB8F
:1016C0000020A06107202061002010BD70477047F6
:1016D000704770B50446006801694FF00005C943C2
:1016E000890715D4C168C943890711D4E91E01616E
:1016F00001202076206880698007204602D0FFF70D
:10170000E7FF04E000F0D2F8204600F06FFA2576FB
:1017100020680169C943490717D4C168C94349070B
:1017200013D46FF0040101610220207620688069E3
:1017300010F4407F204602D0FFF7CAFF04E000F01B
:10174000B5F8204600F052FA257620680169C943B1
:10175000090716D4C168C943090712D46FF00801FC
:101760000161042020762068C0698007204602D0ED
:10177000FFF7AEFF04E000F099F8204600F036FADB
:10178000257620680169C943C90617D4C168C943D1
:10179000C90613D46FF0100101610820207620687B
:1017A000C06910F4407F204602D0FFF791FF04E0AB
:1017B00000F07CF8204600F019FA257620680169CF
:1017C000C943C90708D1C168C943C90704D1891EE3
:1017D0000161204600F00BFA20680169C94309063F
:1017E00009D4C168C943090605D46FF080010161BD
:1017F0002046FFF76BFF20680169C943490609D4F9
:10180000C168C943490605D46FF040010161204613
:1018100000F0EEF920680169C94389060BD4C1685C
:10182000C943890607D46FF0200101612046BDE855
:101830007040FFF74CBF70BD70B5044690F838009B
:1018400001280ED0012584F83850022084F8390090
:101850000C2A19D007DC5AB1042A0DD0082A1ED14F
:101860000EE0022070BD102A12D0142A17D113E006
:10187000206800F011FD12E0206800F05BFD0EE032
:10188000206800F09FFD0AE0206800F0E3FD06E01C
:10189000206800F019FE02E0206800F04DFE84F898
:1018A0003950002084F8380070BD00002DE9F05F49
:1018B000914C01262046628801780B27002540784C
:1018C0004FF015084FF002094FF01F0A4FF0030BBD
:1018D000012A02D0002973D0ECE0002963D104284A
:1018E00056D00FDC08B3012833D0022847D0032894
:1018F00071D1FEF73FFE4FF4004000F055FE04208A
:10190000607050E00B2818D015282BD01F2862D10A
:10191000FEF730FE4FF4805000F046FE4FF40040DA
:1019200000F042FE84F801B03DE0FEF723FE4FF4E4
:10193000806000F039FE677035E0FEF71BFE4FF463
:10194000806000F031FE4FF4006000F02DFE667004
:1019500029E0FEF70FFE4FF4006000F025FE84F84A
:10196000018020E0FEF706FE4FF4006000F01CFE50
:101970004FF4805000F018FE84F8019013E0FEF759
:10198000F9FD4FF4805000F00FFE84F801A00AE04A
:10199000FEF7F0FD4FF4004000F006FE4FF48060CB
:1019A00000F002FE65702078012814D160780028CC
:1019B00073D0012806D0022870D0032812D10CE081
:1019C00012E008E0FEF7D6FD4FF4006000F0ECFDF9
:1019D0006078401C607000F091B8FEF7CBFD4FF4CA
:1019E000004076E06570F6E7042858D00FDC08B3B5
:1019F000012833D0022847D00328ECD1FEF7BAFDE6
:101A00004FF4006000F0D0FD0420607052E00B281D
:101A100018D015282BD01F28DDD1FEF7ABFD4FF4D1
:101A2000805000F0C1FD4FF4006000F0BDFD84F86F
:101A300001B03FE0FEF79EFD4FF4806000F0B4FD82
:101A4000677037E0FEF796FD4FF4806000F0ACFD64
:101A50004FF4004000F0A8FD66702BE0FEF78AFD11
:101A60004FF4004000F0A0FD84F8018022E0FEF772
:101A700081FD4FF4004000F097FD4FF4805000F0DE
:101A800093FD84F8019015E0FEF774FD4FF480504B
:101A900000F08AFD84F801A00CE01DE026E0FEF7CE
:101AA00069FD4FF4006000F07FFD4FF4806000F0AE
:101AB0007BFD6570207801288DD1607860B10128A8
:101AC0000FD0022812D003288CD1FEF753FD4FF41B
:101AD000006000F069FD85E7FEF74CFD4FF4806083
:101AE00074E7FEF747FD4FF400406FE7FEF742FD55
:101AF0004FF480506AE700000000002030BCBDE8D1
:101B0000C09F10B5040003D094F8390010B107E06D
:101B1000012010BD002084F83800204600F00CF8A9
:101B2000022084F83900211D206800F04DFB0120BF
:101B300084F83900002010BD094808B5816D41F0D6
:101B400002018165806D022200F0020000900121F7
:101B50001D20FEF7E5FFBDE808401D20FEF7D5BFBC
:101B60000010024010B50268044631B1042908D0C3
:101B7000082929D00C2908D12AE0D06840F00200B9
:101B800002E0D06840F00400D0600122206800F03C
:101B900077FB1148216881420BD01048814208D060
:101BA0000F48814205D00F48814202D00E48814241
:101BB00003D1486C40F4004048642068016841F05B
:101BC00001010160002010BDD06840F00800DBE793
:101BD000D06840F01000D7E7002C014000340140ED
:101BE00000400140004401400048014070477047F8
:101BF0007047FEE730B5B9B0142122A8FEF7E7FA26
:101C0000442127A8FEF7E3FA88216846FEF7DFFAA9
:101C1000364CA06D40F08050A065A06D002500F00E
:101C2000805038900420319527900120299027A8D2
:101C3000FFF7F8FA00B1FEE74FF4003000904012D1
:101C400021906846FEF7D8FFE06C40F00100E064A8
:101C5000E06C00F001003890E06C40F00200E064BD
:101C6000E06C00F002003890E06C40F00400E064AA
:101C7000E06C00F004003890E06C40F00800E06494
:101C8000E06C22A900F00800389048F2C070229061
:101C90000220CDE92305032025900B2026904FF04C
:101CA0009040FEF7EBFC4FF23320229022A910481F
:101CB000FEF7E4FC4FF4FC70229022A90D48FEF7D9
:101CC000DDFC4FF47F40229022A90B48FEF7D6FCA2
:101CD0000220FEF773FCA06D40F40070A065A06DBB
:101CE00000F40070389039B030BD000000100240A0
:101CF0000004004800080048000C004870B5044685
:101D0000FEF7A6FD05464FF47A7608E0FEF7A0FD43
:101D1000401BB04203D90120A063032070BD20689E
:101D20008068C0438006F1D4002070BDFEE7704794
:101D30000907090E002806DA00F00F0000F1E02084
:101D400080F8141D704700F1E02080F800147047FF
:101D5000704700002DE9F041544C05460F46E068FD
:101D60000026820728684FF0700112D0E26802F066
:101D7000030282421BD1D0B1E06891FAA1F100F0D8
:101D80007000B1FA81F1C8406968401C88420ED1E8
:101D900022E0012804D0022805D0032807D108E05A
:101DA0002268920701E022685205002A07DB01261B
:101DB00078E02268920302D422685203F5E7E268D1
:101DC00091FAA1F122F073036A68B1FA81F1521E0F
:101DD0008A4013430343E360206820F08060206062
:101DE000FEF736FD804605E0FEF732FDA0EB080069
:101DF00002284ED820680001F6D44FF4FE4017B3F5
:101E000090FAA0F0A968012FB0FA80F04FF0FF32ED
:101E100001FA00F12AD0686902EB50004FF0C0626D
:101E200092FAA2F2B2FA82F2904001432069204A6B
:101E3000104001432161206840F080602060FEF77F
:101E400007FD074627E090FAA0F0A968B0FA80F0F5
:101E50008140E8684FF4003292FAA2F20009B2FA27
:101E600082F2904001432069124AE1E7286902EBBF
:101E700050004FF4C00292FAA2F2B2FA82F29040FD
:101E8000014320690C4AD3E7FEF7E2FCC01B02289D
:101E900001D9032606E020680001F5D52069A9696B
:101EA000084320613046BDE8F08100000010024088
:101EB000FF80FFF9FF80FDFFFF809FFF2DE9F041CC
:101EC0004A4C06468846E0680025810730684FF096
:101ED000700312D0E16801F0030181421BD1D0B13F
:101EE000E06893FAA3F100F07000B1FA81F1C84004
:101EF0007168401C88420ED122E0012804D00228DB
:101F000005D0032807D108E02168890701E021688E
:101F10004905002907DB012564E02168890302D413
:101F200021684903F5E7E16893FAA3F321F073020E
:101F30007168B3FA83F3491E99400A430243E26091
:101F4000206820F080502060FEF782FC074604E005
:101F5000FEF77EFCC01B02283BD820688000F7D427
:101F60004FF4FE4191FAA1F1B068B8F1000FB1FA57
:101F700081F100FA01F019D031694FF0FF3202EB24
:101F800051014FF0C06292FAA2F2B2FA82F291408D
:101F900008436169164A114008436061206840F0B7
:101FA00080502060FEF754FC074614E0F1684FF4BF
:101FB000003292FAA2F20909B2FA82F29140084381
:101FC00061690C4AE7E700BFFEF742FCC01B02282C
:101FD00001D9032506E020688000F5D560697169A4
:101FE000084360612846BDE8F0810000001002400F
:101FF000FF80FFF9FF80FDFFF8B51C4D0646002469
:10200000A86DC00002D5FEF7EFFD0DE0A86D40F011
:102010008050A865A86D00F080500090FEF7E4FDA8
:10202000A96D21F08051A965B0F5007F04D0802E04
:1020300007D94FF003040AE0802E08D9A02E01D85A
:1020400004E001D1022402E0702E00D101240848EE
:10205000016821F0070121430160006800F00700DA
:10206000A04201D00120F8BD0020F8BD00100240C0
:10207000002002407047FEF7F1BB000010B598B099
:10208000142111A8FEF7A3F844216846FEF79FF833
:10209000102000900120602100240690CDE9074126
:1020A0000221CDE90A100C9028200D9007200E90F7
:1020B0000420CDE90F016846FFF7B4F800B1FEE750
:1020C0000F2011900320CDE912041494042111A8CB
:1020D0001594FEF769FF00B1FEE70A4CA06D40F0D1
:1020E0008050A065A06D00F0805016902015FEF77E
:1020F00049FD00B1FEE7A06D20F08050A06518B04A
:1021000010BD0000001002400D48016841F470014C
:1021100001600C48016841F001010160002181600B
:102120000268094B1A4002608214C260026822F4FD
:102130008022026081610249C003803908607047D3
:1021400088ED00E000100240FFFFF6EA094842F285
:1021500010710A4B0068B0FBF1F0401E82B20649D4
:102160000748CA8003608988C16000210161C0E915
:1021700001217047280000200000002000040040DA
:102180002C0000200148FFF7A4BA00002C0000201A
:102190000B4810B50B49002202608988C0E9011282
:1021A0003C38FFF7AEFC06490022A1F13C00FFF7E6
:1021B00043FB03480021BDE810403C38FFF7D2BC88
:1021C00068000020000000202DE9F0470268244B41
:1021D000244D254E254F264C4FF0804A984209D079
:1021E000504507D0A84205D0B04203D0B84201D034
:1021F000A04204D122F0700C4A6842EA0C02DFF8D7
:1022000074C0DFF87480DFF8749098420FD05045A6
:102210000DD0A8420BD0B04209D0B84207D0A0429E
:1022200005D0604503D0404501D0484503D122F494
:102230004075CA682A4302608A68C2620A6882627C
:10224000984207D0A04205D0604503D0404501D058
:10225000484501D10969016301214161BDE8F08769
:10226000002C01400004004000080040000C004029
:10227000003401400040014000440140004801405A
:1022800010B50123046A8B409C430462036A8A40B0
:102290001343036210BD00002DE9F043026A22F0EF
:1022A00001020262056A436882691C4C25F002053E
:1022B00022400C6822F0030214438A68194E2A4314
:1022C000174D194FDFF864C0DFF86490A84207D0BB
:1022D000B04205D0B84203D0604501D0484506D190
:1022E00022F00808CA6842EA080222F00402A84262
:1022F00007D0B04205D0B84203D0604501D0484570
:1023000005D14D6923F440731D438B692B43436012
:102310008461496841630262BDE8F0838FFFFEFF7C
:10232000002C0140003401400040014000440140C5
:1023300000480140F0B5026A22F010020262056A0C
:1023400042688369194C1B4E23400C6823F4407388
:1023500043EA042425F020038D6843EA0513144D55
:10236000A84201D0B04206D1CF6823F0800343EAEF
:10237000071323F04003A8420AD0B04208D00E4D04
:10238000A84205D00D4DA84202D00D4DA84207D15C
:102390004D6922F4406242EA85028D6942EA850273
:1023A00042608461496881630362F0BDFF8FFFFE74
:1023B000002C014000340140004001400044014035
:1023C00000480140F0B5026A22F480720262056A98
:1023D0004368C269194C1B4E22400C6822F003026C
:1023E000144325F400728D6842EA0522144DA84278
:1023F00001D0B04206D1CF6822F4006242EA07223F
:1024000022F48062A8420AD0B04208D00E4DA84201
:1024100005D00E4DA84202D00D4DA84207D14D69FE
:1024200023F4405343EA05138D6943EA05134360DF
:10243000C4614968C1630262F0BD00008FFFFEFF06
:10244000002C0140003401400040014000440140A4
:102450000048014030B5026A22F480520262046AE8
:102460004268C369124D24F400542B400D6823F4D4
:10247000407343EA05238D6844EA05340D4DA842B4
:102480000BD00D4DA84208D00C4DA84205D00C4DE4
:10249000A84202D00B4DA84204D14D6922F48042DB
:1024A00042EA85124260C36149680164046230BD3A
:1024B000FF8FFFFE002C014000340140004001402E
:1024C000004401400048014030B5026A22F48032E5
:1024D0000262046A4268436D114D2B400D681D4332
:1024E00024F400330C8943EA04430E4CA0420BD081
:1024F0000D4CA04208D00D4CA04205D00C4CA0427F
:1025000002D00C4CA04204D14C6922F4803242EA41
:1025100004224260456549688165036230BD000060
:102520008FFFFEFF002C01400034014000400140BD
:10253000004401400048014030B5026A22F4801294
:102540000262046A4268436D114D24F400142B406A
:102550000D6843EA05230D8944EA05540D4DA84250
:102560000BD00D4DA84208D00C4DA84205D00C4D03
:10257000A84202D00B4DA84204D14D6922F480221A
:1025800042EA8522426043654968C165046230BD04
:10259000FF8FFFFE002C014000340140004001404D
:1025A00000440140004801404FF48061084B8842DC
:1025B00008D04900884205D04900884202D0C900AD
:1025C000884203D101221846FEF73DB9704700004A
:1025D00000100048FEE700002DE9F0411D46FDF720
:1025E000FBFEFE4C062D7DD2DFE805F0034FA3F67F
:1025F000F4F32078FA4DC107C90E00F0020241EA57
:10260000825100F0040241EA025300F00800034343
:10261000F2482A4600213C38FEF732FA2079C107F9
:10262000C90E00F0020241EA825100F0040241EAC0
:10263000025300F008000343E8482A4602213C38D0
:10264000FEF71EFA207AC107C90E00F0020241EA25
:10265000825100F0040241EA025300F008000343F3
:10266000DE482A4604213C38FEF70AFA207BC107DF
:10267000C90E00F0020241EA825100F0040241EA70
:10268000025300F00800034350E02078D54DC10705
:10269000490E00F0020241EA023100F0040241EA70
:1026A000822100F0080041EA8003CC482A4600213C
:1026B0003C38FEF7E5F92079C107490E00F0020227
:1026C00041EA023100F0040241EA822100F00800F0
:1026D00041EA8003C1482A4602213C38FEF7D0F97E
:1026E000207A00E0A3E1C107490E00F0020241EAAE
:1026F000023100F0040241EA822100F0080041EAC0
:102700008003B6482A4604213C38FEF7B9F9207BFD
:10271000C107490E00F0020241EA023100F0040252
:1027200041EA822100F0080041EA80032A4606219E
:102730001DE12078AC4DC107090C00F0020241EA0E
:10274000027100F0040241EA826100F0080041EAEF
:10275000C023A2482A4600213C38FEF791F920798F
:10276000C107090C00F0020241EA027100F0040204
:1027700041EA826100F0080041EAC02397482A46F6
:1027800002213C38FEF77CF9207AC107090C00F0E1
:10279000020241EA027100F0040241EA826100F0A3
:1027A000080041EAC0238D482A4604213C38FEF740
:1027B00067F9207BC107090C00F0020241EA0271AF
:1027C00000F0040241EA826100F0080041EAC023FF
:1027D000ACE7D2E05FE0FFE720786FF04045C1074B
:1027E00000F0080041EAC0637C482A4600213C38DA
:1027F000FEF746F92078AE0000F00203C0F3800037
:1028000003437648324601213C38FEF739F92079F6
:102810002A46C10700F0080041EAC0636F48022160
:102820003C38FEF72DF92079324600F00203C0F360
:1028300080000343694803213C38FEF721F9207AE0
:102840002A46C10700F0080041EAC063634804213A
:102850003C38FEF715F9207A324600F00203C0F347
:10286000800003435D4805213C38FEF709F9207BD1
:102870002A46C10700F0080041EAC0635748062114
:102880003C38FEF7FDF8207B324600F00203C0F32F
:10289000800003436AE020786FF0407600F0020188
:1028A000090600F0040041EA80534C4832460021FA
:1028B0003C38FEF7E5F82068042505EA500100F0F1
:1028C000010041EAC0034548B7153A4601213C38AA
:1028D000FEF7D6F82079324600F00201090600F032
:1028E000040041EA80533D4802213C38FEF7C8F815
:1028F00060683A4605EA500100F0010041EAC00371
:10290000364803213C38FEF7BBF8207A324600F007
:102910000201090600F0040041EA80532F48042117
:102920003C38FEF7ADF8A0683A4605EA500100F0E1
:10293000010041EAC003294805213C38FEF7A0F810
:10294000207B324600F00201090600F0040041EA53
:102950008053224806213C38FEF792F8E0683A4658
:1029600005EA500100F0010041EAC0030721BDE87B
:10297000F0411A483C38FEF783B820781B4DC10758
:10298000890B00F0020241EAC21100F0040241EAA0
:10299000C21100F0080041EAC05310482A46002145
:1029A0003C38FEF76DF82079C107890B00F0020270
:1029B00041EAC21100F0040241EAC21100F008002D
:1029C00041EAC05305482A4602213C38FEF758F830
:1029D000207AC107890B00F0020209E0D400002030
:1029E000E7FF3FFF9FCFFFFFFF3FFFCFFFFCFDFB58
:1029F00041EAC21100F0040241EAC21100F00800ED
:102A000041EAC0532A4604210A48FEF739F8207BE0
:102A1000C107890B00F0020241EAC21100F0040272
:102A200041EAC21100F0080041EAC0537EE6BDE869
:102A3000F08100009800002002E008C8121F08C1C1
:102A4000002AFAD170477047002001E001C1121F2F
:102A5000002AFBD170470000FDF708FFFFF70EFBCF
:102A60000020FDF70FFF0020FDF76EFCFDF746FC90
:102A70000120FDF7C9FBFDF747FDFFF767FBFFF7F7
:102A800087FB02A0FDF722FCFEE700004C41423527
:102A90000000000000FE1467001D1447009D009C0C
:102AA000003F00FA1400005341980019485A095A8F
:102AB000005F00FC015F01FC00AF1404005BC01864
:102AC000815AC9005800C005005F004200F5006748
:102AD00000EA00AF00BF004600FF00EF0400000165
:102AE0000607081709000100020004002000080082
:102AF00000000000000000000102030406070809AE
:102B0000A0860100400D0300801A060000350C006D
:102B100040420F0080841E0000093D0000127A0030
:102B20000024F40000366E010048E801006CDC026D
:102B3000502B0008000000202C000000382A00085C
:102B40007C2B00082C000020BC040000482A000850
:102B50000100010010270000000400480010004898
:102B60000000004800000048000000480000004845
:0C2B7000000000480000000000093D00CB
:040000050800019D51
:00000001FF
